:03000000020331C7
:0C033100787FE4F6D8FD758125020229D2
:10022900E4F50812035112030E7D037F8012009733
:100239007F811200FA8F087B617D057F01120347D8
:10024900E508FB7A00750D027D017F0112028B80A2
:01025900FEA6
:05035100C2B6C2B52296
:02009700A907B7
:10009900E4FBD2B5EBC394087480948050227E00AF
:1000A9007401A803088005C333CE33CED8F9FFE91C
:1000B900F582EF558224FF92B4D2B6C2B60B80D432
:1000C900E4FBEBC394087480948050227E00740191
:1000D900A803088005C333CE33CED8F9FFEDF582E6
:1000E900EF558224FF92B4D2B6C2B60B80D4C2B502
:0100F90022E4
:0200FA00A90754
:1000FC00E4FDFBD2B5EDC394087480948050227E4D
:10010C00007401A805088005C333CE33CED8F9FF9F
:10011C00E9F582EF558224FF92B4C2B6D2B60D80B7
:10012C00D4E4FDEDC39408748094805017D2B6C209
:10013C00B630B40DA8057401088002C333D8FC4254
:0A014C00030D80DFC2B5C2B4AF039B
:010156002286
:06032200C2A58F80D2A7E6
:080328007F027EEFDEFEDFFC28
:0103300022AA
:0A033D00C2A6120322C2A702032881
:1002D200CFCDCFCECCCE1200427C007D0A1200429E
:0402E200ED2430FFD8
:0A02E600D2A6120322C2A7020328C9
:1002F000AE07EEFB7A0064017004ED148009EB6434
:0E030000024A7009ED243F4480FF12033D22A3
:10030E007F3812033D7F0C12033D7F0612033D7FA3
:04031E000102033D98
:0A034700AC031202F0AF040202E65C
:0602AF008B238A2489253F
:1002B5001202F0E4FDAB23AA24A9258D82758300E3
:0C02C500120003FF60061202E60D80E943
:0102D100220A
:0A025A00EF24FFFDEE34FFFC7F0AE5
:080264008E0E8F0F8C108D111E
:10026C007F017E00E4FBEBC39511E5106480F8740C
:0E027C008098500AAC0EAD0F1200300B80E8D7
:01028A002251
:04028B008A0B8B0C43
:10028F001202F0AA0DEAFF7E00D3940074809480CE
:0F029F00400D12025AAC0BAD0C1202D21A80E6BF
:0102AE00222D
:0401A2008B828A833F
:1001A6001202F0C3E58364809480400D7F2B120217
:1001B600E685831785821880107F2D1202E6C3E438
:1001C6009582F518E49583F517AA16EAFF7E00D303
:1001D600940074809480400D12025AAC17AD181228
:0501E60002D21A80E6C0
:0101EB0022F1
:040157008A1B8B1C58
:10015B001202F0AA1DEAD39400748094804037EA0F
:10016B0024FFFDE434FFFC7F107E00120264AC1B05
:10017B00AD1CCFCDCFCECCCE120042EF540FFEC371
:10018B00940A74809480EE5004243080022437FF4C
:06019B001202E61A80BF0B
:0101A100223B
:0401EC008A208B21B9
:1001F0001202F0AA22EAFF7E00D394007480948059
:100200004026EF24FFFDEE34FFFC7F02120264ACB7
:1002100020AD21CFCDCFCECCCE120042EF54012461
:0802200030FF1202E61A80CD46
:0102280022B3
:10000300BB010CE58229F582E5833AF583E02250B2
:1000130006E92582F8E622BBFE06E92582F8E222FC
:0D002300E58229F582E5833AF583E4932216
:10003000EF8DF0A4A8F0CF8CF0A428CE8DF0A42EE4
:02004000FE229E
:10004200BC000BBE0029EF8DF084FFADF022E4CCA2
:10005200F875F008EF2FFFEE33FEEC33FCEE9DEC6B
:10006200984005FCEE9DFE0FD5F0E9E4CEFD22EDB1
:10007200F8F5F0EE8420D21CFEADF075F008EF2FFB
:10008200FFED33FD4007985006D5F0F222C398FDEC
:050092000FD5F0EA2289
:00000001FF
