:0300000002019E5C
:0C019E00787FE4F6D8FD75813C0201E595
:10044C001408003F0006005B004F0066006D007D45
:06045C000007007F006FA5
:10022A00EF14B40800505490023F75F003A4C5833C
:10023A0025F0C5837302025702025B02025F0202C3
:10024A006302026702026F02027702027FD2A4806F
:10025A000ED2A48012D2A48016D2A4801AC2A4D22A
:10026A00A3D2A28016C2A4D2A3C2A2800EC2A4C2E2
:10027A00A3D2A28006C2A4C2A3C2A2ED25E024088A
:10028A00F808E6F5807F017E00120466E4F5802214
:10039D00E4F539F53AF53B1200038F39E53975F07F
:1003AD000A8485F03AE53975F00A84F53BFD7F0145
:0C03BD0012022AAD3A7F0212022A80DBF5
:0604A200C2A58F80D2A765
:0804A8007F027EEFDEFEDFFCA7
:0104B0002229
:0A04B100C2A61204A2C2A70204A80A
:10041000CFCDCFCECCCE1201497C007D0A1201494E
:04042000ED2430FF98
:0A042400D2A61204A2C2A70204A887
:10042E00AE07EEFB7A0064017004ED148009EB64F4
:0E043E00024A7009ED243F4480FF1204B122EF
:10047B007F381204B17F0C1204B17F061204B17FD6
:04048B00010204B1B5
:0A04BB00AC0312042EAF0402042467
:0603ED008B368A378938C7
:1003F30012042EE4FDAB36AA37A9388D827583002B
:0C04030012010AFF60061204240D80E9BB
:01040F0022CA
:0A036C00EF24FFFDEE34FFFC7F0AD2
:080376008E328F338C348D357B
:10037E007F017E00E4FBEBC39535E5346480F874B1
:0E038E008098500AAC32AD331201370B80E874
:01039C00223E
:0403C9008A258B26D0
:1003CD0012042EAA27EAFF7E00D394007480948035
:0F03DD00400D12036CAC25AD261204101A80E6F9
:0103EC0022EE
:0402E5008B828A83FB
:1002E90012042EC3E58364809480400D7F2B120491
:1002F9002485832185822280107F2D120424C3E462
:100309009582F522E49583F521AA20EAFF7E00D3A0
:10031900940074809480400D12036CAC21AD2212BC
:0503290004101A80E63B
:01032E0022AC
:04029A008A2A8B2BF6
:10029E0012042EAA2CEAD39400748094804037EA7C
:1002AE0024FFFDE434FFFC7F107E00120376AC2A9F
:1002BE00AD2BCFCDCFCECCCE120149EF540FFEC316
:1002CE00940A74809480EE5004243080022437FF08
:0602DE001204241A80BF87
:0102E40022F7
:04032F008A2F8B3056
:1003330012042EAA31EAFF7E00D3940074809480C5
:100343004026EF24FFFDEE34FFFC7F02120376AC60
:100353002FAD30CFCDCFCECCCE120149EF540124F7
:0803630030FF1204241A80CDC2
:01036B00226F
:03046200013C005A
:10048F007F14AE071FEE600A7E0B7DBEDDFEDEFC25
:02049F0080F0EB
:0104A1002238
:100003007590FFC29320970C12048F3097FD120452
:100013008F753C0120960C12048F3096FD12048FCD
:10002300753C0520950C12048F3095FD12048F75D5
:100033003C0920940C12048F3094FD12048F753CFC
:100043000D7590FFC29220970C12048F3097FD120A
:10005300048F753C0220960C12048F3096FD120417
:100063008F753C0620950C12048F3095FD12048F7A
:10007300753C0A20940C12048F3094FD12048F7582
:100083003C0E7590FFC29120970C12048F3097FDA0
:1000930012048F753C0320960C12048F3096FD12C8
:1000A300048F753C0720950C12048F3095FD1204C4
:1000B3008F753C0B20940C12048F3094FD12048F27
:1000C300753C0F7590FFC29020970C12048F3097E8
:1000D300FD12048F753C0420960C12048F3096FD9C
:1000E30012048F753C0820950C12048F3095FD1275
:1000F300048F753C0C20940C12048F3094FD120471
:060103008F753C10AF3CBB
:0101090022D3
:10046600EF1FAC0670011E4C600A7D0B7CBEDCFEE5
:04047600DDFC80EC3D
:01047A00225F
:1001AA0002039DE493A3F8E493A34003F68001F2CB
:1001BA0008DFF48029E493A3F85407240CC8C33356
:1001CA00C4540F4420C8834004F456800146F6DF25
:1001DA00E4800B010204081020408090044CE47E65
:1001EA00019360BCA3FF543F30E509541FFEE4931A
:1001FA00A360010ECF54C025E060A840B8E493A3E1
:10020A00FAE493A3F8E493A3C8C582C8CAC583CA0B
:10021A00F0A3C8C582C8CAC583CADFE9DEE780BEC3
:010465000096
:10010A00BB010CE58229F582E5833AF583E02250AA
:10011A0006E92582F8E622BBFE06E92582F8E222F4
:0D012A00E58229F582E5833AF583E493220E
:10013700EF8DF0A4A8F0CF8CF0A428CE8DF0A42EDC
:02014700FE2296
:10014900BC000BBE0029EF8DF084FFADF022E4CC9A
:10015900F875F008EF2FFFEE33FEEC33FCEE9DEC63
:10016900984005FCEE9DFE0FD5F0E9E4CEFD22EDA9
:10017900F8F5F0EE8420D21CFEADF075F008EF2FF3
:10018900FFED33FD4007985006D5F0F222C398FDE4
:050199000FD5F0EA2281
:00000001FF
