:10069C007D027CC7EF1FAA0670011E4A6006DCFEB5
:0406AC00DDFC80F001
:0106B0002227
:1003D8001206B11206E71205748F0B8E0A8D098C6E
:1003E800081201E7AB07AA067510037D017F021208
:1003F80005C57B2E7D047F0212070AE4FFFE7DC837
:100408007C42AB0BAA0AA909A8081200031201E74B
:10041800E47B64FAF9F81204C27510037D057F02C3
:050428001205C580AEC5
:10066A007F01D2B7C2B77EE6DEFED2B77E20DEFEBB
:09067A00A2B7E433FF7EE6DEFEC8
:010683002254
:1006C500E4C2B77E04DEFEEF24FF92B77E16DEFE9F
:0206D500D2B79A
:0106D7002200
:10068400E4FFC2B77E02DEFED2B77E02DEFEA2B770
:07069400E433FF7E16DEFED9
:01069B00223C
:02060C00AD0738
:10060E00E4FCECC39408748094805013A804740125
:0F061E00088002C333D8FC5DFF1206C50C80E3D1
:01062D0022AA
:10059F00E4FDFCECC394087480948050161206841A
:1005AF00EF600DA8047401088002C333D8FC420524
:0505BF000C80E0AF0517
:0105C4002214
:0D06E70012066A7FCC12060C7F4402060C3E
:1005740012066A7FCC12060C7FBE12060C12059F6F
:100584008F0C12059FEFFEE50CFFFDAC06EC12018B
:0B059400AEE4FBFA7980784102010C14
:0606D800C2A58F80D2A72D
:0806DE007F027EEFDEFEDFFC6F
:0106E60022F1
:0A070000C2A61206D8C2A70206DE48
:10062E00CFCDCFCECCCE1202A77C007D0A1202A770
:04063E00ED2430FF78
:0A064200D2A61206D8C2A70206DEF7
:10064C00AE07EEFB7A0064017004ED148009EB64D4
:0E065C00024A7009ED243F4480FF120700227D
:1006B1007F381207007F0C1207007F061207007FA8
:0406C100010207002B
:0A070A00AC0312064CAF04020642D5
:0605E9008B268A278928F9
:1005EF0012064CE4FDAB26AA27A9288D827583003D
:0C05FF00120268FF60061206420D80E93F
:01060B0022CC
:0A054300EF24FFFDEE34FFFC7F0AF9
:08054D008E118F128C138D1426
:100555007F017E00E4FBEBC39514E5136480F8741A
:0E0565008098500AAC11AD121202950B80E87E
:010573002265
:0405C5008A0E8B0F00
:1005C90012064CAA10EAFF7E00D39400748094802E
:0F05D900400D120543AC0EAD0F12062E1A80E630
:0105E80022F0
:040478008B828A8366
:10047C0012064CC3E58364809480400D7F2B1206DA
:10048C004285831A85821B80107F2D120642C3E49D
:10049C009582F51BE49583F51AAA19EAFF7E00D321
:1004AC00940074809480400D120543AC1AAD1B125D
:0504BC00062E1A80E687
:0104C1002218
:04042D008A1E8B1F79
:1004310012064CAA20EAD39400748094804037EAD3
:1004410024FFFDE434FFFC7F107E0012054DAC1E3D
:10045100AD1FCFCDCFCECCCE1202A7EF540FFEC32E
:10046100940A74809480EE5004243080022437FF73
:060471001206421A80BFD2
:010477002262
:040506008A238B2495
:10050A0012064CAA25EAFF7E00D3940074809480D8
:10051A004026EF24FFFDEE34FFFC7F0212054DACAE
:10052A0023AD24CFCDCFCECCCE1202A7EF540124D7
:08053A0030FF1206421A80CDC9
:010542002296
:10000300EC4D6011E8497017ED33EC3304600DE4F7
:10001300FCFFFEFD22E933E8330470F802025312B9
:10002300021E58046009E4CC2481500628500902BA
:10003300025D28400302025AC0E0EB4A7044B980D3
:1000430006D0E0FB020249EF4E701CBD8008EBFFB7
:10005300EAFEE9FD80EBE98DF0A4FEE5F00200EC99
:10006300E9CDF9EAFEEBFFEF89F0A4FCE5F0CE89D8
:10007300F0A42EFFE435F0CD89F0A42DFEE435F095
:100083008067EF4E7005BD80D780C3EF8BF0A4ACC3
:10009300F0EE8BF0A42CFCE435F0F8EF8AF0A42CFE
:1000A300E5F038FCE433CB8DF0A42CFCE5F03BF811
:1000B300EE8AF0A42CFCE5F038F8E433CF89F0A401
:1000C3002CFCE5F038CF3400CE89F0A42FFFE5F007
:1000D3003EFEE433C98DF0A42EFEE5F039CD8AF05F
:1000E300A42FFFE5F03EFEE43DFD33D0E0FB5007D7
:1000F3000BBB000F02025DEC2CFCEF33FFEE33FE73
:06010300ED33FD020235A0
:1001090002025DEC5D046005E859047003020253C4
:1001190012021E580460F6EC4860F2EC7004FDFE11
:10012900FF22C860DB2481C85009C39860025006C9
:1001390002025A9850CAF582E9294B4A7005AB82E6
:1001490002024975F0007C1A7880C3EF9BEE9AEDA4
:1001590099400DC3EF9BFFEE9AFEED99FDE842F041
:10016900DC23ACF0D0E0FFD0E0FED0E0FDAB822094
:10017900E7101BEB60BAEC2CFCEF33FFEE33FEED1E
:1001890033FD020235E803F830E705C0F075F000E9
:10019900EF2FFFEE33FEED33FD40B830E7C280AA02
:1001A90075F020800E75F010800575F0087D007ED1
:1001B900007F003392D530D5031202FCEC33401096
:1001C900EF33FFEE33FEED33FDEC33FCD5F0ED22DA
:0E01D900E5F0247EA2D513CC92E7CDCEFF2216
:1001E700EDD2E7CD33EC3392D524814006E4FFFE10
:1001F700FDFC22FCE4CFCECDCC24E0501174FF806F
:10020700EDC3CC13CCCD13CDCE13CECF13CF04700B
:07021700F030D5DE0202FC0D
:10021E00E9D2E7C933E833F892D5EDD2E7CD33EC26
:07022E0033FC5002B2D5229F
:10023500EC30E7100FBF000C0EBE00080DBD00042A
:100245000BEB6014A2D5EB13FCED92E7FD2274FFD6
:10025500FCFDFEFF22E480F8A2D574FF13FC7D802F
:03026500E480EF43
:030000000206F401
:0C06F400787FE4F6D8FD7581280203D859
:10026800BB010CE58229F582E5833AF583E022504B
:1002780006E92582F8E622BBFE06E92582F8E22295
:0D028800E58229F582E5833AF583E49322AF
:10029500EF8DF0A4A8F0CF8CF0A428CE8DF0A42E7D
:0202A500FE2237
:1002A700BC000BBE0029EF8DF084FFADF022E4CC3B
:1002B700F875F008EF2FFFEE33FEEC33FCEE9DEC04
:1002C700984005FCEE9DFE0FD5F0E9E4CEFD22ED4A
:1002D700F8F5F0EE8420D21CFEADF075F008EF2F94
:1002E700FFED33FD4007985006D5F0F222C398FD85
:0502F7000FD5F0EA2222
:1004C200C2D5E830E70FB2D5E4C39BFBE49AFAE465
:1004D20099F9E498F8EC30E717B2D51204F8120350
:1004E20046E4C39BFBE49AFAE499F9E498F88003A2
:1004F20012034630D50DE4C39FFFE49EFEE49DFD4A
:04050200E49CFC2257
:0E02FC00C3E49FFFE49EFEE49DFDE49CFC2213
:10030A0075F008758200EF2FFFEE33FECD33CDCCAA
:10031A0033CCC58233C5829BED9AEC99E58298402D
:10032A000CF582EE9BFEED9AFDEC99FC0FD5F0D60A
:10033A00E4CEFBE4CDFAE4CCF9A88222B800C1B934
:10034A000059BA002DEC8BF084CFCECDFCE5F0CB72
:10035A00F97818EF2FFFEE33FEED33FDEC33FCEBAB
:10036A0033FB10D703994004EB99FB0FD8E5E4F966
:10037A00FA227818EF2FFFEE33FEED33FDEC33FC53
:10038A00C933C910D7059BE99A4007EC9BFCE99A47
:10039A00F90FD8E0E4C9FAE4CCFB2275F010EF2F8C
:1003AA00FFEE33FEED33FDCC33CCC833C810D7078C
:1003BA009BEC9AE899400AED9BFDEC9AFCE899F8C7
:0E03CA000FD5F0DAE4CDFBE4CCFAE4C8F9225A
:00000001FF
