:03000000020315E3
:0C031500787FE4F6D8FD7581260202CB4B
:1002CB00E4FF1202E5E4FF120169EFFB7A00750C03
:0A02DB00027D017F0112009780FEF2
:09033F00D2A0D2A1C2A0C2A122E9
:07034800C2A0D2A1D2A02245
:02019C00AD07AD
:10019E00E4FBEBC394087480948050237E0074803B
:1001AE00A803088006CEA2E713CE13D8F8FFEDF50C
:0F01BE0082EF558224FF92A0D2A1C2A10B80D361
:0101CD00220F
:1001FF00E4FFFED2A0EEC39408748094805017D20F
:10020F00A130A00DA8067480088002C313D8FC4249
:06021F0007C2A10E80DF02
:0102250022B6
:0A032100EF24FF92A0D2A1C2A12296
:0C030800E4FFD2A0D2A130A0010FC2A1DE
:0103140022C6
:10026D008F258D2612033F7FA012019C120308AF2C
:10027D002512019C120308AF2612019C12030802DD
:02028D00034824
:020169008F08FD
:10016B00E4F50912033F7FA012019C120308AF08AC
:10017B0012019C12030812033F7FA112019C120370
:10018B00081201FF8F097F01120321120348AF09E7
:01019B002241
:0602F900C2A58F80D2A710
:0802FF007F027EEFDEFEDFFC52
:0103070022D3
:0A032B00C2A61202F9C2A70202FFE7
:10028F00CFCDCFCECCCE1200427C007D0A120042E1
:04029F00ED2430FF1B
:0A02A300D2A61202F9C2A70202FF60
:1002AD00AE07EEFB7A0064017004ED148009EB6477
:0E02BD00024A7009ED243F4480FF12032B22F9
:1002E5007F3812032B7F0C12032B7F0612032B7F03
:0402F5000102032BD4
:0A033500AC031202ADAF040202A3F4
:06024A008B228A238924A7
:100250001202ADE4FDAB22AA23A9248D827583008E
:0C026000120003FF60061202A30D80E9EB
:01026C00226F
:0A01CE00EF24FFFDEE34FFFC7F0A72
:0801D8008E0D8F0E8C0F8D10AF
:1001E0007F017E00E4FBEBC39510E50F6480F8749B
:0E01F0008098500AAC0DAD0E1200300B80E866
:0101FE0022DE
:040226008A1A8B1B8A
:10022A001202ADAA1CEAFF7E00D394007480948067
:0F023A00400D1201CEAC1AAD1B12028F1A80E6D6
:010249002292
:0400E2008B828A8300
:1000E6001202ADC3E58364809480400D7F2B12021B
:1000F600A385831685821780107F2D1202A3C3E481
:100106009582F517E49583F516AA15EAFF7E00D3C6
:10011600940074809480400D1201CEAC16AD171277
:05012600028F1A80E6C3
:01012B0022B1
:040097008A0A8B0B3B
:10009B001202ADAA0CEAD39400748094804037EA24
:1000AB0024FFFDE434FFFC7F107E001201D8AC0A64
:1000BB00AD0BCFCDCFCECCCE120042EF540FFEC343
:1000CB00940A74809480EE5004243080022437FF0D
:0600DB001202A31A80BF0F
:0100E10022FC
:04012C008A1F8B207B
:100130001202ADAA21EAFF7E00D39400748094805D
:100140004026EF24FFFDEE34FFFC7F021201D8AC05
:100150001FAD20CFCDCFCECCCE120042EF54012424
:0801600030FF1202A31A80CD4A
:010168002274
:10000300BB010CE58229F582E5833AF583E02250B2
:1000130006E92582F8E622BBFE06E92582F8E222FC
:0D002300E58229F582E5833AF583E4932216
:10003000EF8DF0A4A8F0CF8CF0A428CE8DF0A42EE4
:02004000FE229E
:10004200BC000BBE0029EF8DF084FFADF022E4CCA2
:10005200F875F008EF2FFFEE33FEEC33FCEE9DEC6B
:10006200984005FCEE9DFE0FD5F0E9E4CEFD22EDB1
:10007200F8F5F0EE8420D21CFEADF075F008EF2FFB
:10008200FFED33FD4007985006D5F0F222C398FDEC
:050092000FD5F0EA2289
:00000001FF
