:06012500010800010900C1
:1000FC00EF1FAC0670011E4C600A7D027CC7DCFE53
:04010C00DDFC80ECAA
:0101100022CC
:0C011100120003AF08050812011D80F762
:030023000200B226
:1000B200C0E0C0F0C083C082C0D075D000C000C014
:1000C20001C002C003C004C005C006C00730980FBB
:1000D200859909AF0912011DE509F4F5A0C298D06E
:1000E20007D006D005D004D003D002D001D000D072
:0A00F200D0D082D083D0F0D0E032ED
:1000030043878075985053890F438920758BF47506
:0D0013008DF4C2ABD28ED2ACD2AFD2BC22E3
:08011D008F9930B5FDC2B52237
:03000000020026D5
:0C002600787FE4F6D8FD75810902006DBA
:10003200020111E493A3F8E493A34003F68001F2D2
:1000420008DFF48029E493A3F85407240CC8C333CF
:10005200C4540F4420C8834004F456800146F6DF9E
:10006200E4800B0102040810204080900125E47E08
:10007200019360BCA3FF543F30E509541FFEE49393
:10008200A360010ECF54C025E060A840B8E493A35A
:10009200FAE493A3F8E493A3C8C582C8CAC583CA85
:1000A200F0A3C8C582C8CAC583CADFE9DEE780BE3D
:01012B0000D3
:00000001FF
