:0300000002000EED
:0C000E00787FE4F6D8FD758109020055EA
:06000300010800010900E4
:100117005389F0438901758AF7758CFFC28DD28C9C
:07012700D2A9D2AFC2B92238
:10009A001201178010AFB0EF70047F0180027F0059
:1000AA00EF6401600575090A80EBAFB0EF70057562
:1000BA00092880E1AFB0EF70047F0180027F00EF72
:1000CA006402600575094680CCAFB0EF70047F0109
:0E00DA0080027F00EF640360BC75095A80B796
:03000B000200E808
:1000E800C0E0C0F0C0D0758AF7758CFF0508E50838
:1000F80075F0648485F008E508C395095006D29028
:0F010800C2A08004C290D2A0D0D0D0F0D0E032FC
:10001A0002009AE493A3F8E493A34003F68001F262
:10002A0008DFF48029E493A3F85407240CC8C333E7
:10003A00C4540F4420C8834004F456800146F6DFB6
:10004A00E4800B0102040810204080900003E47E43
:10005A00019360BCA3FF543F30E509541FFEE493AB
:10006A00A360010ECF54C025E060A840B8E493A372
:10007A00FAE493A3F8E493A3C8C582C8CAC583CA9D
:10008A00F0A3C8C582C8CAC583CADFE9DEE780BE55
:0100090000F6
:00000001FF
