:03000000020003F8
:0C000300787FE4F6D8FD75814302004AC6
:10016B001408003F0006005B004F0066006D007D29
:10017B000007007F006F141C003F0006005B004F60
:0C018B000066006D007D0007007F006F23
:1001CC00EF1FAC0670011E4C600A7D027CC7DCFE82
:0401DC00DDFC80ECDA
:0101E00022FC
:10008F00EF14B4080050549000A475F003A4C58376
:10009F0025F0C583730200BC0200C00200C4020039
:1000AF00C80200CC0200D40200DC0200E4D2A4801B
:1000BF000ED2A48012D2A48016D2A4801AC2A4D2C7
:1000CF00A3D2A28016C2A4D2A3C2A2800EC2A4C27F
:1000DF00A3D2A28006C2A4C2A3C2A2ED25E0241C13
:1000EF00F808E6F5807F017E001201CCE4F580224E
:1001AE007D017F0112008F7D027F0212008F7D0381
:0E01BE007F031200FF7D047F041200FF80E229
:100197001430003F0006005B004F0066006D007DD5
:0601A7000007007F006F5D
:0801E1007F027EC7DEFEDFFC99
:0101E90022F3
:1000FF00EF14B40800505490011475F003A4C58395
:10010F0025F0C5837302012C020130020134020174
:10011F003802013C02014402014C020154D2A48076
:10012F000ED2A48012D2A48016D2A4801AC2A4D256
:10013F00A3D2A28016C2A4D2A3C2A2800EC2A4C20E
:10014F00A3D2A28006C2A4C2A3C2A2ED25E024308E
:0C015F00F808E6F5801201E1E4F58022CA
:10000F000201AEE493A3F8E493A34003F68001F258
:10001F0008DFF48029E493A3F85407240CC8C333F2
:10002F00C4540F4420C8834004F456800146F6DFC1
:10003F00E4800B010204081020408090016BE47EE5
:10004F00019360BCA3FF543F30E509541FFEE493B6
:10005F00A360010ECF54C025E060A840B8E493A37D
:10006F00FAE493A3F8E493A3C8C582C8CAC583CAA8
:10007F00F0A3C8C582C8CAC583CADFE9DEE780BE60
:0101AD000051
:00000001FF
