:1002C2001203C71204671203FDEF700612040AEF4D
:1002D20060F412046D8F321204708F31E532FB7AB2
:1002E200007518027D017F011201F0E531FB7A00F1
:0C02F2007518027D017F021201F080CA25
:1003B200EF1FAC0670011E4C600A7D027CEFDCFE72
:0403C200DDFC80ECF2
:0103C6002214
:1003DB00EF1FAA0670011E4A60087D191DED60F023
:0203EB0080FA96
:0103ED0022ED
:0603EE00C2A58F80D2A71A
:0803F4007F027EEFDEFEDFFC5C
:0103FC0022DE
:0A044400C2A61203EEC2A70203F4E1
:10037600CFCDCFCECCCE12019B7C007D0A12019B45
:04038600ED2430FF33
:0A038A00D2A61203EEC2A70203F48C
:10039400AE07EEFB7A0064017004ED148009EB648F
:0E03A400024A7009ED243F4480FF12044422F7
:1003C7007F381204447F0C1204447F061204447FD2
:0403D70001020444D7
:0A044E00AC03120394AF0402038A0A
:060353008B2E8A2F893079
:10035900120394E4FDAB2EAA2FA9308D8275830078
:0C03690012015CFF600612038A0D80E99F
:010375002265
:0A02FE00EF24FFFDEE34FFFC7F0A41
:080308008E198F1A8C1B8D1C4D
:100310007F017E00E4FBEBC3951CE51B6480F87451
:0E0320008098500AAC19AD1A1201890B80E8C2
:01032E0022AC
:04032F008A268B2768
:10033300120394AA28EAFF7E00D394007480948069
:0F034300400D1202FEAC26AD271203761A80E69B
:010352002288
:04023B008B828A83A5
:10023F00120394C3E58364809480400D7F2B1203D7
:10024F008A85832285822380107F2D12038AC3E43F
:10025F009582F523E49583F522AA21EAFF7E00D348
:10026F00940074809480400D1202FEAC22AD2312D4
:05027F0003761A80E681
:010284002257
:0401F0008A168B17C9
:1001F400120394AA18EAD39400748094804037EAD6
:1002040024FFFDE434FFFC7F107E00120308AC16CB
:10021400AD17CFCDCFCECCCE12019BEF540FFEC382
:10022400940A74809480EE5004243080022437FFB2
:0602340012038A1A80BFCC
:01023A0022A1
:040285008A2B8B2C09
:10028900120394AA2DEAFF7E00D39400748094800F
:100299004026EF24FFFDEE34FFFC7F02120308AC79
:1002A9002BAD2CCFCDCFCECCCE12019BEF54012458
:0802B90030FF12038A1A80CD08
:0102C100221A
:0B042300C28DC28C5389F04389012276
:0B042E00AD07AC068C8CAF058F8A2256
:09045800AF8CEFFEAD8AEDFF222E
:06046100EF24FF928C2243
:0B043900D288C289D2A8D2AFD2B8226C
:0604670012043902042317
:0D03FD00E50F6006E4F50F7F01227F00226E
:0D040A00E50D6006E4F50D7F01227F002264
:03046D00AF0C22AF
:03047000AF0B22AD
:03000300020006F2
:10000600C0E0C0F0C083C082C0D075D000C000C0C0
:1000160001C002C003C004C005C006C007E50870E1
:100026000CFFFE12042E7F011204618051E5086464
:100036000170511204588E098F0AE4FFFE12042E35
:10004600D3E50A949CE50994314010E50A94DCE571
:100056000994375006750802020141D3E50A94FE59
:10006600E50994294018E50A94E6E509942D500E11
:10007600750D01E4FF12046175080002014175085F
:1000860001020141E50864026003020141120458BD
:100096008E098F0AE4FFFE12042ED3E50A946CE55E
:1000A600099402402BE50A9454E50994065021E58B
:1000B6000E131313541F2410F8C000E6FFE50E5468
:1000C60007FEF87401088002C333D8FCF45F80335E
:1000D600D3E50A94D6E5099406402FE50A94BEE5D1
:1000E60009940A5025E50E131313541F2410F8C063
:1000F60000E6FFE50E5407FEF87401088002C333DC
:10010600D8FC4FD000F6050E8006750E0075080166
:10011600C3E50E9420748094804020750E00E5118E
:10012600F4B5100FE513F4B5120985100C85120B02
:10013600750F01750800E4FF120461D007D006D0E0
:1001460005D004D003D002D001D000D0D0D082D0C8
:0601560083D0F0D0E0327E
:03000000020417E0
:0C041700787FE4F6D8FD7581320202C245
:10015C00BB010CE58229F582E5833AF583E0225058
:10016C0006E92582F8E622BBFE06E92582F8E222A2
:0D017C00E58229F582E5833AF583E49322BC
:10018900EF8DF0A4A8F0CF8CF0A428CE8DF0A42E8A
:02019900FE2244
:10019B00BC000BBE0029EF8DF084FFADF022E4CC48
:1001AB00F875F008EF2FFFEE33FEEC33FCEE9DEC11
:1001BB00984005FCEE9DFE0FD5F0E9E4CEFD22ED57
:1001CB00F8F5F0EE8420D21CFEADF075F008EF2FA1
:1001DB00FFED33FD4007985006D5F0F222C398FD92
:0501EB000FD5F0EA222F
:00000001FF
