:0C006C001200847DFFE4FF12003980F7D1
:10005B00AE071FEE600A7E027DC7DDFEDEFC80F080
:01006B002272
:05008400C2B5C2B62266
:02000300AD0747
:10000500E4FBEBC394087480948050237E007480D5
:10001500A803088006CEA2E713CE13D8F8FFEDF5A6
:1000250082EF558224FF92B4D2B6C2B60B80D3D2EA
:03003500B5C2B59C
:0100380022A5
:10003900AE05AC07AF06120003AF04A80774800829
:100049008002C313D8FCF4F5807F0112005B758030
:02005900FF2284
:0300000002007883
:0C007800787FE4F6D8FD75810702006C6B
:00000001FF
